:03000000020C14DB
:0C0C1400787FE4F6D8FD7581130208001B
:100AE80050415353574F52442050524F544543544A
:100AF800494F4E0020202020202020535953544590
:100B08004D2020202020202000454E5445522050C2
:100B1800415353574F52443A202000202041434329
:100B2800455353204752414E54454420202000202D
:100B3800202057454C434F4D4520484F4D452120D7
:100B48002020002020444F4F525320434C4F5349FC
:100B58004E472E2E2020200020202041434345537D
:0D0B6800532044454E4945442120202000E3
:100800007F38120BF87F01120BF87F10120BF87F64
:100810000C120BF87F80120BF87BFF7A0A79E87DC7
:1008200013120B797FC0120BF87A0A79FC120B7540
:10083000120BDB120BDB120BDB7F01120BF87BFFC1
:100840007A0B79117D13120B797FC0120BF8C290CD
:10085000209423740F2513F87631120BDB120BDB77
:10086000120BDB120BDB120BDB120BDB120BDB7F31
:100870002A120C060513209523740F2513F87632DF
:10088000120BDB120BDB120BDB120BDB120BDB127E
:100890000BDB120BDB7F2A120C0605132096237448
:1008A0000F2513F87633120BDB120BDB120BDB1266
:1008B0000BDB120BDB120BDB120BDB7F2A120C069D
:1008C0000513C297D290209423740F2513F8763421
:1008D000120BDB120BDB120BDB120BDB120BDB122E
:1008E0000BDB120BDB7F2A120C06051320952374F9
:1008F0000F2513F87635120BDB120BDB120BDB1214
:100900000BDB120BDB120BDB120BDB7F2A120C064C
:100910000513209623740F2513F87636120BDB127D
:100920000BDB120BDB120BDB120BDB120BDB120BE4
:10093000DB7F2A120C060513C292D29720942374EF
:100940000F2513F87637120BDB120BDB120BDB12C1
:100950000BDB120BDB120BDB120BDB7F2A120C06FC
:100960000513209523740F2513F87638120BDB122C
:100970000BDB120BDB120BDB120BDB120BDB120B94
:10098000DB7F2A120C060513209623740F2513F81B
:100990007639120BDB120BDB120BDB120BDB120BAB
:1009A000DB120BDB120BDB7F2A120C060513C29342
:1009B000D292209423740F2513F8762A120BDB129F
:1009C0000BDB120BDB120BDB120BDB120BDB120B44
:1009D000DB7F2A120C060513209523740F2513F8CC
:1009E0007630120BDB120BDB120BDB120BDB120B64
:1009F000DB120BDB120BDB7F2A120C060513209691
:100A00000C120A12120BDB120BDB120BDBD293025D
:020A1000084E8E
:100A1200E50F64346003020AD7E51064356003020F
:100A22000AD7E51164366003020AD7E5126437601B
:100A320003020AD77F01120BF87BFF7A0B79237D21
:100A420013120B797FC0120BF87A0B7937120B75E0
:100A5200750800750932E5091509AE087002150816
:100A62004E600DD2B3C2B4D2B5C2B6120BDB80E671
:100A720075080075093CE5091509AE0870021508EC
:100A82004E6005120BD380EE7F01120BF87BFF7ACA
:100A92000B794B7D14120B79750800750932E50943
:100AA2001509AE08700215084E600DC2B3D2B4C269
:100AB200B5D2B6120BDB80E67F01120BF875080087
:100AC200750928E5091509AE08700215084E60156A
:100AD200120BD380EE7F01120BF87BFF7A0B796049
:050AE2007D14120B79E8
:010AE70022EC
:0E0BF8008FA0C2B0C2B1D2B2120BDBC2B222C9
:0E0C06008FA0D2B0C2B1D2B2120BDBC2B222AA
:040B75007BFF7D1471
:080B79008B0A8A0B890C8D0D1B
:100B8100E4F50EE50EC3950D501AAB0AAA0BA90C9C
:100B9100850E82758300120BA6FF120C06120BDB69
:040BA100050E80DFDE
:010BA500222D
:080BD300C2B3C2B4C2B5C2B640
:100BDB00E4FFFE0FBF00010EBE1FF8BF40F5E4FFA0
:0C0BEB00FE0FBF00010EEF64644E70F5B9
:010BF70022DB
:100BA600BB010CE58229F582E5833AF583E0225004
:100BB60006E92582F8E622BBFE06E92582F8E2224E
:0D0BC600E58229F582E5833AF583E4932268
:00000001FF
